:020000040002F8
:10600000C85C0020156302001D6302001F630200CC
:1060100021630200236302002563020000000000E8
:1060200000000000000000000000000027630200E4
:1060300029630200000000002B6302002D630200B0
:106040008D6602002F6302005D6B02002F63020069
:106050002F6302002F630200C56402002F63020059
:106060002F6302002F6302000D6B02002F630200FA
:106070002F6302002F6302002F6302002F630200D0
:106080002F630200E56602002F6302002F63020007
:10609000E96702002F630200ED6702002F63020030
:1060A0002F6302002F6302002F6302002F630200A0
:1060B0002F6302002F6302000000000000000000B8
:1060C0002F6302002F6302002F6302002F63020080
:1060D0002F6302002F6302002F6302000000000004
:1060E00000000000000000000000000000000000B0
:1060F00000000000000000000000000000000000A0
:10610000000000000000000000000000000000008F
:10611000000000000000000000000000000000007F
:10612000000000000000000000000000000000006F
:10613000000000000000000000000000000000005F
:10614000000000000000000000000000000000004F
:10615000000000000000000000000000000000003F
:10616000000000000000000000000000000000002F
:10617000000000000000000000000000000000001F
:10618000000000000000000000000000000000000F
:1061900000000000000000000000000000000000FF
:1061A00000000000000000000000000000000000EF
:1061B00000000000000000000000000000000000DF
:1061C00000000000000000000000000000000000CF
:1061D00000000000000000000000000000000000BF
:1061E00000000000000000000000000000000000AF
:1061F000000000000000000000000000000000009F
:10620000DFF80CD000F020F900480047618F020051
:10621000C85C002000B583B002900091019244F266
:10622000010071466A4600F0DFFD03B000BD0000CA
:1062300030B4044654E8000F0D4644E80053002BE8
:10624000F8D1156030BC704730B4044654E8000FF4
:1062500040EA010544E80053002BF7D1156030BC3B
:10626000704730B4044654E8000F00EA010544E8E2
:106270000053002BF7D1156030BC704730B4044692
:1062800054E8000F80EA010544E80053002BF7D1E1
:10629000156030BC704730B4044654E8000F00EB82
:1062A000010544E80053002BF7D1156030BC70475E
:1062B00030B4044654E8000FA0EB010544E8005355
:1062C000002BF7D1156030BC704770B404464FF016
:1062D000000054E8006F0D68AE4207BF44E8002399
:1062E000012044E800630E60002B1CBF0020F0E793
:1062F00070BC704730B4044654E8000F88422CBF8D
:10630000451A054644E80053002BF5D1156030BC12
:10631000704700000648804706480047FEE7FEE752
:10632000FEE7FEE7FEE7FEE7FEE7FEE7FEE7FEE745
:10633000F1670200016202002DE9F05F05460020CE
:1063400092469B4688460646814640241BE02846E6
:1063500041464746224600F067F853465A46C01A5F
:10636000914110D311461846224600F016F82D1A16
:1063700067EB01084F4622460120002100F00DF88E
:1063800017EB00094E41201EA4F10104DFDC484652
:1063900031462A464346BDE8F09F202A04DB203AD6
:1063A00000FA02F1002070479140C2F1200320FA68
:1063B00003F319439040704700487047ACC3020094
:1063C00040EA01039B0703D009E008C9121F08C077
:1063D000042AFAD203E011F8013B00F8013B521EF7
:1063E000F9D27047D2B201E000F8012B491EFBD26E
:1063F00070470022F6E710B513460A4604461946D0
:10640000FFF7F0FF204610BD421C10F8011B0029C9
:10641000FBD1801A7047034611F8012B00F8012BBD
:10642000002AF9D118467047202A04DB203A21FAC5
:1064300002F00021704721FA02F3D040C2F120029D
:106440009140084319467047064C074D06E0E06846
:1064500040F0010394E8070098471034AC42F6D3AB
:10646000FFF7D2FE04CB020024CB020010B50F20B0
:1064700003F056FB122003F04CFB082003F050FB06
:1064800020240BE0142000F015F80F2003F041FB4E
:10649000142000F00FF80F2003F042FB641EF1D22D
:1064A000122003F03DFBBDE810404FF47A7000F07D
:1064B00001B80000002802D0014980010847704758
:1064C00021C002002DE9F04700268AB0DFF8509184
:1064D000B0464FF48075012437460696284603F0EF
:1064E0004FFB38B1D9F80403204203D0284603F00B
:1064F0003DFB26432D1D64007F1CADB2082FEDD35C
:106500004FF4BE74204603F03BFB48B1204603F035
:106510002DFB46F0004606AA0121002003F012FBE5
:10652000404D16F0FF0F15D00127002437420DD043
:1065300009EB8401D1F81005D1F81015C0F304203F
:1065400055F82420C1F3014102B190477F00641C3B
:10655000082CEBD3002E5FDA4FF0FF30CDF810801F
:1065600054E0281910F8507F90F9000027F0C00877
:10657000401C3BD007A9404602F067FF10B34FEA2A
:106580009719404602F00AF855F820701FB1B9F18A
:10659000030F03D006E0B9F1030F27D104A9404649
:1065A00002F05BFF4FF0A04101EB8800D0F800073C
:1065B00006A9C0F3014A404602F047FF18B1BAF1FC
:1065C000020F03D012E0BAF1030F0FD1B9F1030F9C
:1065D00008D1BAF1020F1DD00221404603F088FA1B
:1065E000761CF6B217B149464046B847641C042CE5
:1065F000B7D3002E10D06A460121002003F0A2FA82
:1066000006990098884207D00690049800263446E0
:106610000790A6E70321E0E70AB0BDE8F087000095
:10662000006000406432002000F01F020121914010
:106630004009800000F1E020C0F88012704700F0AF
:106640001F02012191404009800000F1E020C0F8C4
:106650000011704700F01F020121914040098000A5
:1066600000F1E020C0F8001270474907090E002829
:1066700006DA00F00F0000F1E02080F8141D7047EA
:1066800000F1E02080F800147047000070B54FF46E
:106690008076304603F028F8114CB50560B13046DD
:1066A00003F029F80120C5F80803607920B901201A
:1066B00060712168002088474FF48276304603F0ED
:1066C00013F800280AD0304603F015F80220C5F868
:1066D00008032168BDE870400120084770BD000034
:1066E000002B002007480021C0F84011C0F84411D9
:1066F000C0F84811C0F84C11C0F80011C0F80411DE
:1067000005F014B9001001402DE9F04781468A4692
:10671000082003F005FA122003F0FBF90F2003F024
:10672000FFF91420FFF7C6FE002425464FF6FF7838
:106730001FE000264FF0A0470F2003F0EAF91420D5
:10674000FFF7B8FED7F81005800910F0010F17D039
:1067500008EA4400401C84B20F2003F0E1F9142041
:10676000FFF7A8FE761C082EE6DB0AF80540002499
:106770006D1C4D45DDD3BDE8F047122003F0D0B9C4
:1067800008EA4404E8E700F015BA000070B50E46C8
:10679000144900EB400001EBC0051446E86A1835C7
:1067A00020B101280FD0022805D113E0284600F0BF
:1067B00035FAA04201D2002411E022463146284693
:1067C00000F064FA0BE0284600F028FAA042F4D268
:1067D0000446F2E73146284600F02BFA04462046EC
:1067E00070BD00003C3A002004F0EEBF03F058BF3B
:1067F000F0B5B5480023021D0178101D01254FF0AA
:10680000805406290BD11678360708D10678C6F3CE
:106810000316032E06D0042E04D0052E02D006291E
:1068200007D00EE0B4F82463A84FC6F304263E60F8
:1068300002E01678360704D10678C6F30316032E55
:1068400002D0062904D00FE0A24FA14E7E670EE0D1
:106850001678360708D10678C6F30316032E06D03D
:10686000042E04D0052E02D0062907D00EE0D4F85D
:106870004462994FC6F342363E6002E0167836070E
:1068800004D10678C6F30316032E02D0062906D0DB
:1068900011E0924E376827F0807737600EE0167867
:1068A000360708D10678C6F30316032E06D0042E49
:1068B00004D0052E02D006290AD011E04FF0804600
:1068C000C6F80C31C6F81031834E361F336002E033
:1068D0001678360704D10678C6F30316032E02D0C5
:1068E000062905D00CE07C4F032664373E600AE0A1
:1068F0001678360704D10678C6F30316032E02D0A5
:1069000006290DD014E0764F05263E60744E783689
:106910003560734E083633603F263F1D3E6002E00F
:106920001678360704D10678C6F30316052E02D072
:10693000062957D062E06B4E36686B4F3E60694E59
:10694000361D36683F1D3E60664E083636683F1D70
:106950003E60644E0C3636683F1D3E60614E103618
:1069600036683F1D3E605F4E143636683F1D3E6000
:106970005C4E183636685C4F20373E60594E1C36E8
:1069800036683F1D3E60574E203636683F1D3E60DC
:10699000544E243636683F1D3E60524E28363668C7
:1069A0003F1D3E604F4E2C3636683F1D3E604D4EBB
:1069B000303636684C4F40373E604A4E3436366883
:1069C0003F1D3E60474E383636683F1D3E60454E9F
:1069D0003C3636683F1D3E60424E403636683F1DAD
:1069E0003E6002E01678360708D10678C6F3031633
:1069F000032E06D0042E04D0052E02D0062907D07F
:106A000019E0D4F85812394A01F04F01116002E040
:106A1000117809070FD10078C0F30310032803D0C1
:106A2000042801D0052806D131480168C90702D0E1
:106A30006FF001010160D4F83001062808D1D4F8C4
:106A40003401062804D12B48016841F480610160BB
:106A500022487438016841F470010160BFF34F8F20
:106A6000BFF36F8F4FF01021D1F80002002803DB35
:106A7000D1F80402002822DA1F4A15601F48046872
:106A8000002CFCD01524C1F800420568002DFCD074
:106A9000C1F8044201680029FCD013600168002994
:106AA000FCD0BFF34F8F0D48F0380168144A01F451
:106AB000E06111430160BFF34F8F00BFFDE7124952
:106AC00010480860F0BD0000E00F00F040350140C4
:106AD0000DF0ADBA00C007403C050040FCED00E001
:106AE000105600400404001020C50040E40E004091
:106AF000000400403C17004004E5014000E4014070
:106B00000400FA050090D003AC2B00202DE9F047DB
:106B1000104E042700244FF4A0784FF4803900BFB2
:106B200008EB840509FA04F0715961B1D6F8041331
:106B3000014208D02946304603F058FE0648D0E905
:106B4000002128469047641CE4B2BC42E8D3BDE86B
:106B5000F087000000A000401033002001480068CA
:106B600000470000082B002070B50646122002F0F6
:106B7000D0FF8024002534424FF0080002D102F0FB
:106B8000C8FF01E002F0CCFF0F2002F0C2FF14208A
:106B9000FFF790FC0F2002F0C3FF1420FFF78AFCE0
:106BA00064086D1C082DE6DBBDE87040122002F081
:106BB000B7BF000010B5124C02202061606111A027
:106BC000A06104F17800E0614FF4007020620020C1
:106BD000A06260620BA1A164E06204F51E71E16431
:106BE0001021A065C4E91410E06509A1E01DFFF7BC
:106BF00012FC08A12046FFF70EFC2020A07110BD5A
:106C00003C3A00205465726D696E616C00000000B2
:106C10005254540053454747455200000269C16829
:106C20008A4203D88068401A104400E0501A401E7F
:106C300070472DE9F047C4681746894606464FF06D
:106C400000083069A04201D9051B02E0B168201A92
:106C50000D1AB0686D1E001BA84200D80546BD4243
:106C600000D33D4670682A4620444946FFF7A8FBFA
:106C7000B0687F1B2C44A844A944A04200D1002442
:106C8000F460002FDDD14046BDE8F0872DE9F041EA
:106C900004468846D4E90207C51BE16860681646C9
:106CA0000844B54206D94146FFF78AFBB819E060AF
:106CB000BDE8F0812A464146FFF782FB761B08EBD0
:106CC000050132466068FFF77BFBE660F0E70000F5
:106CD000014A024900F026B8B78A0200482B00207A
:106CE00002E008C8121F08C1002AFAD17047704795
:106CF000002001E001C1121F002AFBD170470000F3
:106D00000121202803DA81400548014003E04028A2
:106D100002DA2038814009B1012070470020704715
:106D2000FC06FFBD2DE9F04116460F46044600253E
:106D300003E03946B047641C6D1C20780028F8D168
:106D40002846BDE8F08110B501220221002001F0A3
:106D5000ADFA08B1072810D107220221012001F065
:106D6000A5FA08B1072808D100210A22084601F037
:106D70009DFA08B1072800D1002010BD00B5ABB0C6
:106D8000AC216846FFF735FB02208DF8000000209B
:106D90008DF8020005208DF803000120ADF84C00AD
:106DA0008DF87C000C4940201491229044F25060F0
:106DB00023900A4829906946094800F043FC20B115
:106DC000084A40F24B21FFF725FA0121044800F060
:106DD00036FC2BB000BD0000A62A00209DAF0200AB
:106DE000C42E0020E4900200FEB515460E4607466C
:106DF00072B603F05DF900BF02F092FF0028FBD1EC
:106E00002249234A0120891AC90800EB0144012FB5
:106E100023D06FF48050381822D0B0F5405F24D0D2
:106E20006FF44051C84206D12B88204619A16A68E8
:106E300003F09BF804E0204632461DA103F08EF8D3
:106E400021480068C00700D000BE2A4603B0314682
:106E50003846BDE8F04000F079B820461BA101E0BB
:106E6000204622A103F076F8EAE7A86803F0B4FC14
:106E70000346D5E90001CDE900100296204624A181
:106E8000AA6803F07AF820462BA1EBE784CB020036
:106E900034CB0200415353455254494F4E20464192
:106EA000494C45442061742025733A257500000043
:106EB000554E4B4E4F574E204641554C5420617411
:106EC0002030782530385800F0ED00E0534F46541C
:106ED0004445564943453A20415353455254494F3E
:106EE0004E204641494C454400000000534F465453
:106EF0004445564943453A20494E56414C49442061
:106F00004D454D4F525920414343455353000000D6
:106F10004552524F52202575205B25735D206174C8
:106F20002025733A25750D0A50432061743A2030AC
:106F30007825303878000000456E64206F66206543
:106F400072726F72207265706F72740008B50123DF
:106F50008DF800309DF80030144B186059609A602D
:106F60006FF48041401807D001280FD1DA60D8684B
:106F700000889861D86807E01A61186980685861CC
:106F800018690068986118694068D861186858687D
:106F90009868D868186958699869D86972B600BF46
:106FA0009DF800000028FBD162B608BD1C3300200C
:106FB00010B58268C368934203D001F055FD0020EC
:106FC00010BD052010BD29B112B1531E134203D0CC
:106FD000092070470E207047016083800021816086
:106FE000C1600846704710B58268C3689A1A8388E2
:106FF0009A4203D801F042FD002010BD042010BDCC
:10700000084B9B7823B12AB120B10068037C1BB1E7
:1070100008207047072070470023037441744261C1
:10702000184670473C33002070B504F08FF91048C3
:1070300000240B21047044700E4D817014206C608C
:107040002C706C70FFF7F0FA06211420FFF70DFB8F
:107050001420FFF7F4FA0848046006211120FFF716
:1070600004FB0548001F0068A860002070BD0000F8
:107070003C330020102B0020081501402DE9FC476F
:10708000DFF8789099F8023073B368B3052902D21B
:107090000720BDE8FC87436933B3437C012B25D02F
:1070A000002704460025884616468DF8005068469D
:1070B00000F0EEF801A804F013FFC8B1012101703F
:1070C0000F4944600968C0E90218C0E904769DF8D8
:1070D000040089F801009DF8000000F0FDF814207C
:1070E000FFF7B8FA2846D4E70820D2E70F46D8E7DA
:1070F00004259DF8000000F0EFF8F3E73C33002092
:10710000041501400649897839B130B1416921B18E
:1071100000210174022104F0E5BB08207047000043
:107120003C33002070B50B4E01460B48B578FFF795
:107130003FFF04465DB10020B070711C0122C81DE4
:1071400002F04AFB18B105A2CE21FFF763F82046F2
:1071500070BD0000242B0020483400202E2E5C2E11
:107160002E5C2E2E5C2E2E5C2E2E5C2E2E5C636FE3
:107170006D706F6E656E74735C6C6962726172695A
:1071800065735C756172745C6170705F7561727457
:107190005F6669666F2E6300F0B5244E89B01F46A6
:1071A0000D00044672603FD0A888296882B220484A
:1071B000FFF709FF002835D1A889A96882B21C48C9
:1071C0001030FFF700FF00282CD120221949684613
:1071D000FFF7F6F860690690207C00B101208DF879
:1071E00014008DF81C70607C00B10E208DF8150025
:1071F000E0680290A06803902068019060680090A9
:107200000A480D4A6946083002F0B2FA002809D14E
:10721000B0702068401C05D004490122491CC81DDB
:1072200002F0DAFA09B0F0BD0720FBE7242B0020BA
:1072300048340020C8C0020061BA020010B50146FF
:107240001048FFF7D0FE040019D10F480F4A01780B
:10725000515C19B1001D03F041FE02E00C3003F057
:1072600025FD60B9084907480839FFF7A1FE30B984
:10727000054901220839044802F0BEFA04462046B6
:1072800010BD0000583400202C2B0020F42A0020D0
:1072900030B5EFF3108172B60D4A9468012324B122
:1072A0000370002900D162B630BD93604FF0E02337
:1072B000D3F88051074C25401560C3F88041D3F8BE
:1072C000844154605A17C3F8842100220270E8E711
:1072D00068340020FC06FFBD0B498A68002A11D0E3
:1072E00000280FD1EFF3108072B60B684FF0E02248
:1072F000C2F800314B68C2F8043100228A600028CD
:1073000000D162B670470000683400202DE9F041DA
:10731000064608680C46411C4FF0A0474FF0010597
:1073200006D005FA00F1C7F80815206802F0CCFB7A
:107330006068411C02D0012102F0AAFB3168A069FB
:10734000C1F82405607D227D31681043C1F86C05C9
:10735000D4E900123068C0F81425C0F80C15207D5F
:10736000012815D1A068411C02D0002102F090FB39
:10737000E068411C05D08540C7F80855E06802F078
:10738000A3FBD4E902123068C0F80825C0F8101534
:10739000BDE8F0812DE9F041064608680C46411C25
:1073A0004FF0A0474FF0010506D005FA00F1C7F8ED
:1073B0000815206802F092FB6068411C02D0012190
:1073C00002F06FFB3168A069C1F82405607D217D62
:1073D00032680843C2F86C05D4E900123068C0F87E
:1073E0000C15C0F81425207D012815D1A068411C7A
:1073F00002D0002102F055FBE068411C05D0854019
:10740000C7F80855E06802F069FBD4E90212306859
:10741000C0F80825C0F81015BDE8F08170B515005A
:10742000044609D00020286034B1206820B1A0793A
:10743000800703D0072070BD0E2070BD084600F005
:107440000FFBC0B2142804D02179814203D8042054
:1074500070BD052070BDE288216800FB0210286025
:10746000002070BD2DE9FC470025178806461580D1
:1074700090F82D001446894630B13A4621464846D8
:1074800000F002FB051E09D1B0784FF00C0A18B3CA
:107490002088C846001DB84202D95046BDE8FC8786
:1074A000684679DF0028F9D12088032108F8001008
:1074B00020881921401C80B2208008F80010208804
:1074C000401C80B2208000EB0801BDF8000004F0F1
:1074D00055FC218808442080F0780222C8B1218818
:1074E00096F9033001F1030C4846BC45D5D8425407
:1074F00021884FF0010C491C89B2218000F801C09D
:107500002188491C89B2218009F801302088401C5B
:1075100020807068B8B1218890F9003001F1030C27
:107520004846BC45B9D8425421880A22491C89B230
:10753000218042542188491C89B2218009F80130F8
:107540002088401C2080308950B1CDE900474B464F
:107550000622022106F1080004F0DAFC051E9DD186
:10756000308A50B1CDE900474B460722032106F18E
:10757000100004F0CDFC051E90D1308B50B1CDE948
:1075800000474B461522142106F1180004F0C0FCF8
:10759000051E83D1306A30B13B462246494601F090
:1075A00064F9051EDBD1706A30B13B46224649467C
:1075B00001F0D4FD051ED2D196F82C0038B13B461F
:1075C00022464946304603F0A5FF051EC7D1307854
:1075D00038B13B4622464946304601F049FE051E79
:1075E000BDD128465AE718B504460020ADF8000082
:1075F00013466A46204600F006F8002802D0BDF87F
:107600000000204418BD70B588B182B100241588EF
:1076100003E0065D641C3444A4B2A54203D80619F5
:1076200076789E4201D08C42F3D38C4201D3002065
:1076300070BDA11C1180005D401E80B270BD80F83D
:10764000301070472DE9F0470D00044606D02CB1EC
:1076500095F87A000026012803D006E00E20BDE848
:10766000F08795F89800012829D0D5F8A0000428C3
:1076700025D0D5F89C00042821D04FF00109A67030
:107680002C2205F17801201DFEF79AFE84F8306067
:10769000D5F8A4006063D5F8A800A0634FF6FF708A
:1076A000A4F8480204F50D70C4F84402C4F84A6214
:1076B000A4F84E6284F85062207810B104E00720EC
:1076C000CDE7FF2084F8540004F15501C4F83412CA
:1076D00094F82400EE274FF01F0801281FD0A4F8CB
:1076E000388200BF04F50E722846FFF7BBFE002863
:1076F000B5D115F13C0F18D004F24311C4F83C1277
:1077000094F8240001280DD0A4F8408204F51072EA
:1077100005F13C00FFF7A6FE0028A0D109E0A4F87F
:107720003872DFE7A4F84072F0E7C4F83C62A4F8CE
:10773000406284F85190208BA4F8480084F83C9073
:10774000266484F85060606960644D4604F13C0230
:10775000002104F1540072DF002880D125707EE7FB
:1077600010B50288102A1BD0112A20D0262A1DD13C
:10777000007A0C46012801D0022817D1A0780521F3
:10778000401CB0FBF1F201FB1201204600F01EF894
:1077900000280BD0A16B002908D0BDE81040084795
:1077A000C27B012A02D18088A1F8480210BD0C4694
:1077B000002184F852128088B4F848128842F5D12A
:1077C00020790028F2D10121DFE770472DE9F05F31
:1077D000044600780F4698B1A7700025C4F84A52B5
:1077E000A4F84E5284F85052A079012608B1012F16
:1077F00009D0E07980B1012F05D0022F03D00BE032
:107800000820BDE8F09F616B21B184F85162082027
:10781000884701E084F8515204F24B2100200A5CB1
:107820000AB1304603E0401C0628F8D300204FF090
:1078300002084FF0030B012F06D0022F0CD0032FAC
:107840000FD0042F15D110E0A17929B194F824109C
:1078500011B908B130460DE0E17911B108B14046E7
:1078600008E0207A08B1584604E0607A08B10420A4
:1078700000E02846A070616B41B1032801D00428C4
:1078800004D1607910B194F85202A0B184F8535237
:1078900004F13C0018210746FEF7ABFD04F12C0073
:1078A00084F83C60814603F0D1FC58B194F82C0078
:1078B00084F8510008E084F8545284F85362072099
:1078C0008847E5E784F8516094F8240050B14846B1
:1078D00003F0BCFC20B194F8280084F8520001E0C9
:1078E00084F8526084F85050A27804F24A2104F5DA
:1078F0000D794FF0060A052A62D2DFE802F07A031A
:107900000F22410084F83160C4F84452C4E91015D4
:1079100084F83C808020A4F8480053E084F831804B
:1079200094F82420384612B10722027001E080F852
:1079300000B0228A8281C4F844524160E168B96093
:1079400040E06069B860208BB88194F824003D461F
:1079500010B184F83CA001E084F83C60204604F0BB
:10796000A1FA50B185F814800421204601F08FF867
:1079700030BB052184F8311020E084F831B01DE0DF
:10798000E069B860208CB88194F824003D4610B1BD
:1079900084F83CA001E084F83C60204604F082FAC0
:1079A00048B185F814800421204601F070F838B9F8
:1079B00084F831A002E0042084F83100C4F8449235
:1079C000A07878B13A4604F15400D4F8441272DF3A
:1079D00000287FF416AF94F8301094F8540073DF49
:1079E0000028F6D1616B11B194F83100884700206E
:1079F00007E784F83150F5E770B5040012D001466E
:107A00001C221448FEF7DCFC1248134D0560206868
:107A100050B17ADF002806D12068016829604068EB
:107A2000686005E00E2070BD0B487BDF0028FAD1AE
:107A300008484FF6FF711438084A20F8041B05491E
:107A4000343901600021FFF7DBFA0028EBD0032076
:107A500070BD0000BC310020EC2A00203DBE0200B9
:107A600010B5044600F006F808B1204610BD1420F9
:107A700010BD0000142801D30020704701460148C2
:107A800001F054BCDC3100207CB5054608880C466A
:107A90000930904201D90C207CBD68466DDF00287A
:107AA000FAD121880820685420881B21401C80B20C
:107AB000208029542088401C80B220802844DDF892
:107AC00001100160BDF8051081802088801D80B202
:107AD00020809DF80010490800D0012129542088F9
:107AE000401C208000207CBDF8B5394D018804463B
:107AF0006E8821294BD01ADC3648374A1029A0EB72
:107B000002004FEAD0004FF0030202EB004020D009
:107B1000112935D0132939D100231A468521304641
:107B20007FDF002832D02DA240F261110DE03B2909
:107B300045D0522938D0562928D18088132176DFA4
:107B4000002823D025A240F27511BDE8F840FEF7C9
:107B500061BB26A102F0FEF9072000F0C9FB20B1AD
:107B60001EA24FF4A371FEF755FBA188698022483D
:107B700001F042FD002809D018A240F24911E4E7C3
:107B80001EA102F0E7F94FF6FF706880F8BD0020F3
:107B90000090A08869468FDF0028F7D00FA240F23E
:107BA0005B11FEF737FBF8BD00231A461946304635
:107BB000B1DF0028F7D009A240F26711C5E780883D
:107BC000132176DF0028EED004A24FF4B771BCE792
:107BD000A02A002084CB020034CB02002E2E5C2E83
:107BE0002E5C2E2E5C6D61696E2E6300436F6E6E8F
:107BF0006563746564000000B82E002044697363F7
:107C00006F6E6E65637465640000000010B51A4CF9
:107C10000188606810290ED011292BD1401E6060A8
:107C200028D1FFF790F8002824D02168002921D01E
:107C3000BDE810400847D0B900210122084600F0F5
:107C400035FB08B107280FD107220221012000F0DF
:107C50002DFB08B1072807D104220221002000F0E3
:107C600025FB20B1072802D0216801B18847606850
:107C7000401C606010BD0000E42A00202DE9F047A0
:107C800001883B4E40F2F3194FF6FF7510291BD0C7
:107C900011293ED0122954D0502946D1C188F289E9
:107CA000841D914241D1618902293ED186883046A6
:107CB00000F08EFF050038D004F10C0000F01CFA33
:107CC000A8B3294630464EE0C17B87880446012987
:107CD0002BD1A846284600F07BFF050017D02F8047
:107CE00000202872234843464A460168C5F80A1016
:107CF0004068C5F80E0004F1100105F10A0001F01A
:107D00001FF86872F08900280FD129462AE0042064
:107D100013E0808800F05CFF040006D06068FFF785
:107D2000F1F908B103F0C6FB2580BDE8F087FFE755
:107D30006868FFF7E7F90028F7D0BDE8F04703F0DF
:107D4000B9BB87880646384600F042FF0400ECD0F5
:107D50002B464A4606F1080104F10A0000F0F0FF44
:107D6000607221463846BDE8F04700F0CFBD000004
:107D7000BC310020EC2A00202DE9F04F0746858811
:107D800002883E48012197B08346102A09D0112A63
:107D90004BD01A2A6ED1387AB1EB101F47D201228C
:107DA00046E0364C083CA068C0430B9061680BA8C5
:107DB00001F0DDFA0B990CA800F038FD2C220CA97B
:107DC0006846FEF7FDFA0026E946A04610E000BF2F
:107DD00009EB46005FF00004B0F804A008EB840053
:107DE0005146001D01F097FA641C1D2CF6D3761C39
:107DF0000098B042ECD8142D07D317B0E321BDE8AA
:107E0000F04F1FA20420FEF705BA2946584601F09C
:107E100098FA294608F1040001F093FAF87B01284A
:107E200028D016482946001D15E029461AE00022F0
:107E30000221B1EB101F01D2012600E000260F49FC
:107E4000083901F11000041D294682B101F079FAC8
:107E500036B12946204617B0BDE8F04F01F071BA9F
:107E60002946204617B0BDE8F04F01F054BA01F0A2
:107E700052FAF5E717B0BDE8F08F0000E0310020BE
:107E80002E2E5C2E2E5C2E2E5C2E2E5C2E2E5C2E2C
:107E90002E5C636F6D706F6E656E74735C626C6583
:107EA0005C636F6D6D6F6E5C626C655F636F6E6E51
:107EB0005F73746174652E630000000010B586B0B6
:107EC00002248DF81010A3F57F41ADF814408DF811
:107ED0001120FF3914D000210091019102910391EA
:107EE00001218DF80210808AADF8000004A80390EB
:107EF00005A8029069461846AEDF80B206B010BDF4
:107F00000820FBE7F0B585B016460F4604001D4675
:107F100014D004AA1946E069FFF780FA00280BD1B3
:107F2000A5F57F40FF380BD0049848B1007848B1E0
:107F30003088F42808D9072005B0F0BD0E20FBE7F3
:107F40000520F9E70820F7E7002000900190029053
:107F50000390A088ADF8000001208DF80200CDE963
:107F6000026769462846AEDFE6E7000070B5454D7A
:107F700004008EB02DCD08AE86E82D007FD00029FC
:107F80007DD008682062214608A862DF002873D1EE
:107F9000207801258DF83200ADF83050A21C0CA9D4
:107FA0002846A8DF002867D120216846FEF721FA7D
:107FB0000220ADF8000020788DF802008DF80C50FA
:107FC0009DF80D00F4268DF81150ADF8046040F0D6
:107FD00010008DF81250ADF806508DF80D008DF898
:107FE0001350608804F11402694600F0DFFA00289B
:107FF00042D120216846FEF7FCF90320ADF80000CD
:1080000020788DF802008DF80C509DF80D00ADF829
:10801000046040F00C008DF81150ADF806508DF85A
:108020000D008DF81250608804F10C02694600F0D2
:10803000BDFA002820D120216846FEF7DAF9042095
:10804000ADF8000020788DF802008DF80C509DF8F6
:108050000D008DF81150ADF8046040F010008DF85F
:108060001250ADF806508DF80D008DF81350608851
:10807000221D694600F09AFA0EB070BDFFE70E208F
:10808000FAE700009CC0020070B588B004460029E1
:1080900024D0002C22D008462188102920D0502935
:1080A00024D057291AD10546A188C06906AAFFF72E
:1080B000B5F9002812D1069E307800280ED018217C
:1080C0006846FEF796F901208DF800000195A0881A
:1080D000ADF808000396296A6846884708B070BD65
:1080E00008B02146BDE8704002F08EBF08B02146BE
:1080F000BDE8704003F068B8007800F001007047F8
:1081000008B502F093FA20B10D4A4FF4C471FEF79E
:1081100081F8002000906946012002F003F920B1A7
:10812000074A4FF4C771FEF775F8684602F092F9F6
:10813000002804D0024A4FF4C971FEF76BF808BD5D
:10814000E49002000149085C7047000054C002003E
:1081500007490B5C4FF0A041D1F80425012098405D
:1081600020EA0203C1F808351040C1F80C05704739
:1081700050C002000249085C012101F0D8BC000097
:1081800050C002000249085C002101F0D0BC000090
:1081900050C002000649095C4FF0A040D0F8040529
:1081A000C84010F0010000D0012080F001007047AD
:1081B00050C0020010B500242046FFF7DBFF641C0E
:1081C000042CF9D310BD10B500242046FFF7DAFFC8
:1081D000641C042CF9D310BD10B50246064B4FF0B9
:1081E000FF3000215C5C944201D1084610BD491C5F
:1081F0000429F7D310BD000054C0020010B50020C0
:1082000000F066F908B1062806D1012000F060F9F7
:1082100008B1062800D1002010BD00002DE9F0476C
:108220000D468146FFF7D8FF0446042836D2DFF812
:1082300074801B481C4EA8F10C0725B3012D0ED0ED
:10824000022D2BD104EB440030444578002D25D07D
:10825000B968002922D02846BDE8F047084704EB5A
:108260004401755C0E44717849B10E4A4FF40041E7
:10827000093A8068FEF702FF08B987F80390B178E1
:1082800008F80410E2E78068FEF73CFF04EB4401C5
:10829000314418F804008D78A842D7D0BDE8F087A3
:1082A00058C00200E02A00205C31002070B5002395
:1082B000042810D20D4D00EB4004012A02D10129FF
:1082C0000CD00022094E00EB4000304461B101297E
:1082D00006D0022906D00723184670BD0E30C2B260
:1082E0002A55F9E74270F7E78270F5E75C31002024
:1082F000044A014600201279D20702D0084600F055
:1083000003B87047D42A00202DE9F05F6E4C054673
:1083100000266078B34618B184F801B000F032FD51
:108320006A4F4FF47A694FF4C87A4FF00108182D5C
:1083300069D2DFE805F00C1313384754696E727B7D
:10834000727BC58484848484B3B6B9BCC5C500F08F
:1083500019FD3868FEF7D6FE06465CE00020FFF700
:1083600019FF00284FF0000008D0FFF703FF022D8F
:1083700002D14FF4E16008E0484606E0FFF702FF53
:10838000022D01D1C82000E05046410CC0034FF43B
:10839000FA72801841F10001257052000023FDF7A8
:1083A000CBFF01462AE00020FFF7F4FE00284FF043
:1083B000000004D0FFF7DEFE4FF44870E5E7FFF75A
:1083C000E1FEDFE70020FFF7E5FE00284FF00000A8
:1083D00002D0FFF7CFFECFE7FFF7D4FED4E70020AF
:1083E000FFF7D8FE00284FF0000002D0FFF7C2FED2
:1083F00001E0FFF7C7FE257041F69A1100223868A8
:10840000FEF73CFE064646E00020FFF7A1FE257081
:1084100008E0002051E025703DE084F80180012053
:10842000FFF796FE002240F6CD41E8E784F8018090
:108430000120FFF78DFE00224FF48041DFE77868CE
:10844000FEF760FE0646D5F1110000D02EB10220E5
:10845000FFF790FE84F802B01DE0012816D980B223
:10846000C8214843C117C90341EA5041C0034FF432
:10847000FA72801841F1000152000023FDF75CFF01
:10848000014600227868FEF7F9FD06460220FFF754
:1084900079FE84F802803046BDE8F09F00F072FC5F
:1084A000B9E700F06FFCB4E700F06CFC04E000F00A
:1084B00069FC0020FFF766FE0120FFF763FEAAE7D4
:1084C000FFF781FEA7E70000D42A002058C0020071
:1084D000012103F084BD00002DE9F8430546861C08
:1084E00000208DF8000090460F464FF001096846C5
:1084F000FEF7CEFE1B4C20683860D4E90001401A1C
:10850000A16804F21C47081A0EE00121384600F069
:1085100028FF00F0D7FC0146384600F022FFD4E9DE
:108520000001401AA168081A401C8642EDD8B8F133
:10853000000F03D0052065F3891002E0062065F3E3
:108540009F50A2682168114004EB8101C860206837
:10855000304420609DF80000FEF7BEFE4846BDE8AE
:10856000F88300001836002030B482680468531C79
:108570008360A154D0E901128A4202D330BC01F0D9
:1085800058B930BC70470000034803C8814201D18C
:108590000120704700207047183600200249084427
:1085A00090F9300070470000643200202DE9F0435C
:1085B0008146887891B090460C4600B901208DF82C
:1085C0003E002088ADF83C0000250095607C69469F
:1085D00002F0E4FF6E46A07C711C02F0DFFFE07B3E
:1085E00000289DF8020002D040F0080001E020F0D1
:1085F00008008DF80200217C11B140F0100001E06C
:1086000020F010008DF80200217B11B140F0010034
:1086100001E020F001008DF80200217D09B1022166
:1086200000E0012161F342008DF802001C2102A844
:10863000FDF7DFFE607BC10601D4800617D50E95DD
:108640000EAFE07C791C02F0A9FF9DF83800079777
:1086500020F00F00401C20F0F00010308DF83800A2
:108660009DF83A0020F00600801C8DF83A00607BEF
:108670008DF80800A07B8DF80900142109A8FDF7EA
:10868000B8FE0FA8CDE90906A088ADF83000A068B3
:1086900020B1E088ADF82C00A0680D90A06998B3D7
:1086A00001950088ADF81000A06901AD01A94088CE
:1086B000ADF81200A069406806950390A069007BA0
:1086C00002F06CFFA069691C407B02F067FFA069A3
:1086D000807A00289DF8060002D040F0080001E0F2
:1086E00020F008008DF80600A169C97A11B140F0A8
:1086F000100001E020F010008DF80600A169097A51
:1087000019B140F0010002E00DE020F001008DF809
:108710000600A169897B09B1022100E0012161F312
:1087200042008DF80600E06900B10590434609AAB1
:1087300002A94846AADF11B0BDE8F08370B5084C25
:10874000050009D010342168002907D0086820608E
:10875000496828468847F6E70834F4E770BD00000A
:1087600050320020054A012120B1012805D1917025
:10877000FFF7E4BF51700020FAE770475032002045
:108780002DE9F05F26484168F1B3DFF898B00E6834
:108790008146DBF8004087688078E11B21F07F4547
:1087A000ED1CB0B9DFF880804FF48030C8F8440386
:1087B000C8F804031120FDF737FF1120FDF73FFF34
:1087C0004FF0010AC8F800A02F2002F067F889F8DE
:1087D00002A0B54200D23546124BE8193C3320F0D6
:1087E0007F401860DBF800105A46091B21F07F41DA
:1087F000001B20F07F40C91C81420FD9106818600F
:108800002F2002F04BF800E004E0BDE8F05F1120FB
:10881000FDF720BFBDE8F05F02F098BDBDE8F09F16
:10882000102B0020041501400010014073B58CB0DE
:108830000646002000900D9880B100246D46214628
:108840000DA800F073FD30B1009805EB4000848066
:108850000098401C0090641C142CF0D32C22694614
:108860003046FDF7ADFD0EB070BD2DE9F041178823
:108870000646B81D14460D46984202D90C20BDE8A4
:10888000F0813188072206290AD34FF4486C4FF64D
:10889000FF73614501D9994202D17088062801D23F
:1088A0001046ECE7604501D99842F9D1994203D0CE
:1088B000984201D08142F3D80520E8552088122142
:1088C000401C80B2208029542088401C80B2208027
:1088D0004119308803F052FA2188084480B2208080
:1088E0004119708803F04AFA21880844208000204A
:1088F000C5E7000001A2F121FDF78CBC2E2E5C2EF5
:108900002E5C2E2E5C6D61696E2E630038B54A7A3E
:108910000F4B62B100220A725969002906D0012268
:108920008DF80020ADF802006846884738BD0A7A05
:1089300062B19B684C68024619462046FEF79EFBD2
:108940000028F3D0BDE8384002F0B4BD5B68F1E721
:10895000BC31002070B588B0064600200590069016
:10896000ADF81410ADF816100190029001AA05A9F7
:10897000304690DF050021D001F02EFF034611485C
:1089800011493246401AC108012000EB014004465B
:108990000E4901F0EAFABDF8042012B9BDF806004C
:1089A00028B1BDF80630204609A101F0DEFABDF875
:1089B00008201AB12046164901F0D0FA08B028461E
:1089C00070BD000034CB020034CB0200B0C3020003
:1089D00054686520726571756573746564205458B8
:1089E0002F5258207061636B6574206C656E6774DC
:1089F0006820697320746F6F206C6F6E67206279D6
:108A00002025752F2575206F63746574732E000003
:108A1000FCC3020010B50021024800F0B3FC80F353
:108A2000100010BD343A00200E4910B50A784C7879
:108A30000023A24212D0521CD2B20A70022A00D1E4
:108A40000B70084A0B780C3252F8232002608868B9
:108A5000104420F07F408860012010BD036000209A
:108A600010BD0000102B0020826883881A40036824
:108A70009A5C0A708168491C81607047C26883886B
:108A80001A4003689954C168491CC160704770B5A9
:108A90000D460446B0F83812D0F834020122FEF731
:108AA000A2FD00B1057004F13C0204F50D7104F162
:108AB000540072DF70BD10B50446C0B2FEF7BEFBB5
:108AC000204610BD0EB515A19DF8080020F00F003E
:108AD000401C20F0F00010308DF80800062202A89B
:108AE0007CDF18B10F4A7921FDF794FB002000903C
:108AF00001900621ADF80400ADF800104FF4C870E5
:108B00000921ADF80600ADF8021068467ADF0028AA
:108B100003D0044A8321FDF77DFB0EBD6B78345FE3
:108B200031350000E49002000C484A8843889A429C
:108B300013D10A88A2F52063773B0ED18988C91E1C
:108B40008AB28280064807491346401AC0080321AA
:108B500001EB004004A101F008BA7047A02A0020F0
:108B600084CB020034CB020044617461206C656EDA
:108B70002069732073657420746F2030782558281D
:108B80002564290010B50C490C4800F07CFC20B18C
:108B90000BA240F2AD11FDF73DFBF721074800F0B5
:108BA00066FC002806D0BDE8104005A24FF4D8713D
:108BB000FDF730BB10BD0000298B0200A42E002061
:108BC0002E2E5C2E2E5C2E2E5C6D61696E2E630047
:108BD0000146034802888A4200D000207047000006
:108BE000A83100202DE9FC5F0E008346DDE90C472B
:108BF000C6F1000098469246814600D408460125F9
:108C000003E000BF90FBFAF06D1C5045FADAA8456E
:108C100000D9454624B1002E01DB780700D5641E3B
:108C2000B80702D5B8F1000F0AD0F80708D13CB157
:108C3000A54205D220215846641EFFF795FCF6E7B1
:108C4000002E02DA4E462D2102E0780703D52B21B3
:108C50005846FFF789FC07F0030002280BD1B8F152
:108C6000000F08D13CB1A54205D230215846641E00
:108C7000FFF77AFCF6E7CDE9004743465246314616
:108C8000584603F081F8BDE8FC9F000070B50D4622
:108C9000044600684FF4887101F0C4FD4FF49071F0
:108CA000206801F0BFFD4FF49271206801F0BAFD19
:108CB0004FF4A271206801F0B5FD20681249C0F898
:108CC00004132068690740F30730090E002806DA0C
:108CD00000F00F0000F1E02080F8141D03E000F127
:108CE000E02080F800142068012140F3073000F0F4
:108CF0001F0291404009800000F1E020C0F880127E
:108D0000C0F8001170BD00001003020002460020F0
:108D10001268530713D502F00300012802D002287D
:108D20000CD105E0C2F383100B68801C184404E0EA
:108D30000223086803EB9252104408600120704738
:108D4000F0B58488A518944200D82246A41AC28897
:108D5000D6189A4200D81346D21A4B880788BB42CD
:108D60000CD34088834209D88888A04206D3A84201
:108D700004D8C888904201D3B04201D90020F0BD88
:108D80000120F0BD0A4810B5807860B1002401E0F0
:108D9000022C06D02046FFF7EDF9641C042CF7D313
:108DA00010BD0324F6E7BDE81040FFF703BA00004A
:108DB000D42A0020F7210180172141800021017170
:108DC0004171FB2181711B21C17170472DE9F04771
:108DD000394E002780463D46DFF8E090D6F804A0E3
:108DE00057E003D00446D0F81C8035E099F8002005
:108DF00002EB4201521CD2B289F8002009EBC101FA
:108E000099F80230091D9A4201D189F8005048684A
:108E10000A780446012A12D0022A02D0032A3BD142
:108E200008E002F02FFD00B10127257434E005743D
:108E3000C06900E070680028F9D170602CE0207CE7
:108E400050BB88686060C868A0600869E0604869D5
:108E5000A061F07800B165606268B168184B501A83
:108E600020F07F40984202D2A168084406E0881AA8
:108E7000A16820F07F40814202D9081A206000E0FA
:108E8000256065600120A56020742046E56102F040
:108E9000DBFCB8F10000A4D199F8001099F80100AA
:108EA0008142A3D117B97168514502D00120BDE8B4
:108EB000F0870020FBE70000102B00203C3300204F
:108EC000FFFF7F002DE9FF410026234800F046FA0E
:108ED0002148001F074600F041FA204C60680090CE
:108EE000A56800E000986946284004EB80000C303B
:108EF000FFF70CFF0028F5D101AA009901EA05034C
:108F000004EB8303491CDB6842F82030401C0091CD
:108F10000228F2D3019800F0030001280BD00228A8
:108F200010D10198032101EB90500099BDF80A601F
:108F300001EB900005E00198BDF80A60C0F38310D2
:108F400008440090384600F006FA08B100986060C6
:108F500004B03046BDE8F081303A002018360020D9
:108F60008AB002F033FB18225A496846FDF728FA06
:108F70005948069059494FF48070CDE9070109908E
:108F80000723574A06A96846FEF706F920B155A2FD
:108F90004FF40C71FDF73EF94FF40041002001F051
:108FA00051F820B14FA24FF41A71FDF733F900F0D8
:108FB000A9FEFEF739F818B14AA26621FDF72AF991
:108FC00001F056F920B147A24FF41D71FDF722F9C7
:108FD000FFF796F8FFF776FDFFF7D4FD3D49032430
:108FE0001839444AD1E90401CDE9000139488DF826
:108FF00002406946103801F0BFFC20B139A240F2AE
:109000005E31FDF707F9334810380068D0F81005D5
:10901000394A0423C240012000902E480221103812
:1090200001F094FC2B48103801F082FC3348019089
:10903000002501A9324800F0EAFA18B129A2C82196
:10904000FDF7E8F82F48009069462F48FEF78EFF9D
:1090500018B124A2D021FDF7DDF8FDF78FFE1C2109
:109060006846FDF7C6F94FF42030CDE900504FF4C3
:10907000702002902548059025488DF80C400690F8
:10908000ADF80E508DF810506846FEF7B5FC20B1D3
:1090900014A24FF48471FDF7BDF81EA0FDF718FE71
:1090A00021482249401AC00804EB004020A100F0EA
:1090B00051FF134803210C30FEF788FB20B109A2B1
:1090C0004FF42271FDF7A6F800F02AFE01F0E4F853
:1090D000FAE7000038C00200A42C0020A42D0020D4
:1090E000DDB902002E2E5C2E2E5C2E2E5C6D616989
:1090F0006E2E630095B7020000127A00DDA2020016
:10910000B82E0020F9AE0200AC2A0020D9AF020030
:10911000F58802000D0A554152542073746172742F
:1091200065642E0D0A00000084CB020034CB0200DF
:109130004465627567206C6F6767696E6720666F4C
:10914000722055415254206F76657220525454203B
:10915000737461727465642E0000000070B514466B
:1091600082880E4605462088111D0144921C9942B2
:1091700001D8FE2A01D90C2070BD521C325420881F
:10918000FF21401C80B2208031542088401C80B2D6
:1091900020808119288802F0F1FD2188084480B2DE
:1091A0002080AA8842B1A96841B13044FDF708F98E
:1091B0002088A98808442080002070BD072070BD49
:1091C0002DE9F047C5881E1DB6FBF5F78946B6FBAD
:1091D000F5F1044605FB176C407916686843DDF825
:1091E00020A0F718001F874200D9C61A166001E0B8
:1091F0002468491E0029FBD1A5EB0C078846B7421D
:1092000016D818E004EB0C00001D09EB0803BAF1B6
:10921000000F3A4602D00146184600E01946FDF715
:10922000CFF82468F61B4FF0000CB844B54201D9C2
:10923000374600E02F46002EE4D1BDE8F08700005D
:1092400030B5024651B100F01BFF0021074C08E089
:1092500034F821301568AB4202D11160002030BDD6
:10926000491C8142F4D3052030BD000000000000FD
:10927000F8B50F46017814460546012901D16878F2
:1092800030B12088821C9A4232D8012902D006E0EF
:109290000720F8BD69780144891C994228D8181A1A
:1092A000801E86B2ADF800602188B81C084469466B
:1092B0007DDF0028EDD12978022904D06878BDF837
:1092C0000020904205D3BDF80000B04201D809202B
:1092D0000AE00820012905D16978B14202D8ADF829
:1092E000001001E0ADF80060BDF80010FE2901D9C2
:1092F0000C20F8BD2288491CB9542188491C89B228
:10930000218078542088401C2080BDF8001008443B
:1093100020800020F8BD01F01F0301229A40D243B3
:10932000490900EB8100114600F021B84A0950F8C4
:10933000220001F01F0201219140084000D00120CD
:10934000704701F01F0301229A40490900EB810098
:10935000114600F01CB8002100F00FB8012100F008
:1093600016B808B56A46FCF796FF009808BD08B520
:109370006A46FCF776FF009808BD08B56A46FCF718
:1093800070FF08BD08B56A46FCF752FF08BD08B576
:109390006A46FCF759FF009808BD08B56A46FCF715
:1093A00087FF009808BD38B5044600258DF80050A9
:1093B0006846FDF76DFF21686268086890420ED923
:1093C000401E08600178238AE26801FB0325227AA7
:1093D0002168101AC0B20A79824200D208719DF841
:1093E0000000FDF779FF284638BD38B50546002056
:1093F0008DF800000C466846FDF74AFFE868298AA8
:10940000201AB0FBF1F12A681068431C1360017048
:109410009DF80000FDF760FF38BD10B530B1017A4E
:1094200042680368891AC9B21A6006E00E2010BDAE
:1094300003681A68541C1C601170491EC9B2F7D227
:10944000006800210171084610BDC20800F0070342
:109450000120895C98400840704710B5C20800F0B0
:109460000703885C01249C402043885410BD28B128
:10947000A1F11702E12A03D3072070470E2070479D
:1094800001800020704710B560B10161F72120F81C
:10949000021B20F8021BFB2100F8021BFFF78AFCCD
:1094A000002010BD0E2010BDF0B5858893B00C468D
:1094B000002D39D1018800263F4F24293BD006DCFE
:1094C000102909D011290CD0232958D14FE03A296D
:1094D0000BD0552953D129E00146204601F0CAFDA1
:1094E0004DE0A01DFFF766FC49E02246408934F8B4
:1094F000061F814200D808466080172800D2172036
:109500006080106970B1607960B1D7E90001CDE980
:109510000301ADF80E506088ADF81000136903A97F
:10952000104698476671267113B0F0BD014620467B
:1095300001F0F4FD23E0011D2C2206A8FCF740FFFA
:10954000BDF81800BDF81C2004EBC0014A73226965
:10955000AAB1D7E90423CDE90423ADF81200487B72
:109560008DF814002269204604A9904707E0017A8B
:10957000207B884200D201462846FFF7EBF9A07A0B
:109580000028D1D0E1882846A5DF012580B1112827
:10959000CAD001F021F902460848094913B0401A1F
:1095A000C00805EB0040BDE8F04006A100F0D6BCC5
:1095B000A672E572B8E7000084C0020034CB020056
:1095C00034CB020073645F626C655F6761747463BF
:1095D0005F65786368616E67655F6D74755F7265FE
:1095E000717565737428292072657475726E65646F
:1095F0002025732E0000000020B10278DE2A03D05F
:10960000082070470E20704741800020704760B1ED
:1096100059B10278DE2A0AD009684160DE21017062
:109620004FF6FF714180002070470E2070470820E0
:1096300070477FB5054600294DD0002D4BD00878E6
:109640000C46DE2847D1A8886188884202D120468E
:1096500002F034FC2888012825D002283BD01128AC
:109660003AD0512837D135F8040F6188884232D179
:10967000A978A81C02292ED1017A042903D0062931
:1096800001D0052927D10021009102228DF8002068
:1096900001914FF4C07202910391ADF80420007A59
:1096A00005280FD010E0297A2046012913D1A98876
:1096B000428891420FD10121017204B0BDE870408F
:1096C00002F0FCBBADF8041028886946B0DF002822
:1096D00001D0616888477FBDA88861888842FAD137
:1096E0004FF6FF7060807FBD00F180400068002869
:1096F00000D00120704708B500F1804000210160D2
:109700000068009008BD000070B50B4C207808B1CF
:1097100085250FE00020A06060602061E0600748C0
:1097200001F09EF8054600F0CDFF08B901F080F881
:1097300001202070284670BD50320020658702004D
:1097400038B500258DF800506846FDF7A1FD074C9F
:10975000E068401EE060E06810B901F091F8A57083
:109760009DF80000FDF7B8FD38BD00005032002024
:10977000F0B505460478154889B0164640F824200F
:10978000124A0869121DA2F1080742F82400487F16
:10979000385520226846FCF713FE04942878385C7C
:1097A00048B10EB10A4A00E000226946281D01F0C6
:1097B00095FA09B0F0BD0EB1064A00E000226946F4
:1097C00005F10C0001F040F9F3E70000F82A002051
:1097D00059BC020001BB020030B40378054CE35CC5
:1097E0001BB130BC001D01F0AFBA30BC0C3001F031
:1097F00095B90000F42A002030B40378054CE35CEE
:109800001BB130BC001D01F021BB30BC0C3001F09D
:10981000FBB90000F42A00200FB408B50399002911
:1098200004D004AA00926A4600F00FF801B05DF877
:1098300014FB10B582680446002A05D0D4E904035D
:10984000216898470020A06010BD2DE9FC47914693
:109850000C00804676D014F8011B39B125290ED0B2
:109860004046FEF781FE20780028F4D198F80C00DD
:10987000002867D04046BDE8FC47FFF7DABF00206C
:10988000012221782B291BD02D2902D0302908D183
:1098900002E040F0010001E040F00200641C002AF8
:1098A000EFD100252A290ED02178A1F130020A2A11
:1098B00011D205EB850201EB4205641C303DF1E756
:1098C00040F00400EAE7D9F800100B1DC9F8003099
:1098D0000968641C0D44217800232E290BD114F84B
:1098E000011FA1F130020A2A05D203EB830201EB2A
:1098F0004203303BF3E76C290DD068290BD069296E
:1099000021D00BDC252918D0582931D063290ED05D
:10991000642915D117E014F8011FECE7702969D00C
:10992000732932D075291BD0782909D120E0D9F8C4
:109930000000011DC9F8001001784046FEF714FE32
:10994000641C90E76CE0D9F800100A1DC9F80020EB
:109950000968CDE900500A224046FFF743F9EFE7D6
:10996000D9F800100A1DC9F8002009680A2206E08B
:10997000D9F800100A1DC9F8002009681022CDE9A5
:109980000050404602F000FADAE7D9F8001000274C
:109990000A1DC9F800200E68C00705D112E0404634
:1099A000761C7F1CFEF7E0FD31780029F7D104E03A
:1099B000202140466D1EFEF7D7FDBD42C0D9002DC7
:1099C000F6D1BDE74EB13046FCF71EFD074604E078
:1099D000202140466D1EFEF7C7FDBD4206D9002D71
:1099E000F6D103E04046761CFEF7BEFD3178002933
:1099F000F8D1A5E7D9F80000011DC9F800100568E5
:109A000030214046FEF7B0FD78214046FEF7ACFD20
:109A100008200021CDE90001034610222946B0E7C5
:109A2000BDE8FC8770B541EA4201DDE904564FF01C
:109A3000A04441EA830141EA052104EB800041EAA8
:109A40000641C0F8001770BD70B541EA4201DDE97A
:109A500004564FF0A04441EA830141EA052104EB9A
:109A6000800041EA0641C0F8001770BD70B541EAB8
:109A70004201DDE904564FF0A04441EA830141EA86
:109A8000052104EB800041EA0641C0F8001770BDD3
:109A90001CB500220B46009211460192FFF7D4FF3D
:109AA0001CBD1CB500220B46009211460192FFF727
:109AB000DDFF1CBD1CB5002100910B460122019168
:109AC0001146FFF7AFFF1CBD1CB5002100910B46EE
:109AD000012201911146FFF7B7FF1CBD1CB5002103
:109AE00000910B46012201911146FFF7BFFF1CBDFB
:109AF0004FF0A04202EB8000D0F8002722F4403261
:109B0000C0F80027D0F8002742EA0141C0F800174A
:109B100070474FF0A04201218140C2F80C157047F8
:109B20004FF0A04201218140C2F808157047012280
:109B30004FF0A043824011B1C3F808257047C3F825
:109B40000C25704718B5084B6C4601441B68009300
:109B500006E000BF54F82030D3F81035401C08C28E
:109B60008142F7D818BD0000ACC00200034908B517
:109B70000844002101600068009008BD00600040BA
:109B800002494058012800D0002070470060004082
:109B900030B5154A01460020D2F8104423460AE0A9
:109BA000DB681D79854205D1401C0A28F6DB4FF0A1
:109BB000FF3030BD1B68002BF2D1431CF9D0CB68BD
:109BC0001871D2F8103443B1DB68CC681B6823608D
:109BD000D2F81024D268116030BDC2F81014C968E0
:109BE00000220A6030BD0000183600207047FCF7E4
:109BF000CABD704708B5034A00924023024A00F0EC
:109C000005F808BDC5B4020080340020F0B595B059
:109C10001C4615460F4608461A9E00F003FB182105
:109C200009A8FCF7E6FB0E96CDE9095400230822AB
:109C300003A9384600F00BFB05980690BDF810000C
:109C4000ADF81C00BDF81200ADF81E0000208DF824
:109C500021000398082600F00300012802D0022802
:109C600018D032E003983346850AC0F3C2008DF85D
:109C7000200003980FA9C0F38314A200384600F017
:109C8000E6FA09A8009006AB22460FA9284600F084
:109C900025FA1AE00398840DC0F3C2008DF8200065
:109CA000082C01D2254600E0082533462A460FA994
:109CB000384600F0CCFA2E44641B09AB06AA2946AC
:109CC0000FA800F069F9002CEAD1384600F0B0FA8C
:109CD00015B0F0BD0A4A012902EBC00007D00229E5
:109CE00007D0032907D0042907D00020704702209D
:109CF0007047042070470079704740797047000032
:109D000034CB020010B5FFF772FF04210348FFF7C0
:109D10003FFF02490120C968487110BD24CB0200F1
:109D20002DE9F04F8DB0FEF72FFC18B100200DB0DB
:109D3000BDE8F08F7E4C4FF0000BC4F818B4BFF3B1
:109D40004F8F60680290A568D846284004EB8000D9
:109D50000CE000BFD4F8180470B921680298814261
:109D600001D86160E2E7284004EB80000C3002A9D2
:109D7000FEF7CCFF0028EDD1002005AA029901EAE8
:109D8000050304EB8303491CDB6842F82030401CC8
:109D900002910228F2D3059800F00300022802D0B5
:109DA00001284DD0AAE005985022810D8946B2EBDA
:109DB000905F00D850210E4666F39F500590083101
:109DC0005C4800F0E6F9070078D000F02BFA434633
:109DD000082205A9384600F042FA029908F1080A5B
:109DE0002940681A8000001D864222D9504D0C354A
:109DF00030B1C2B204EB8101301A90460C3104E05C
:109E00002946F2B2002590462846C6B25346384647
:109E100000F025FA0AEB080325B1324629463846F8
:109E200000F01DFA029909F1030001EB9000029085
:109E30003BE004EB81015346324638460C31EFE7F4
:109E40000598C0F38310062800D30620059960F317
:109E50008911C1F38310801C05918100354800F001
:109E600098F907004AD000F0DDF94346082205A919
:109E7000384600F0F4F908F1080800260FE00298CF
:109E8000434600EA0501401C04EB810102900422D4
:109E900038460C3100F0E3F908F10408761C059807
:109EA000C0F38310B042EAD847B1D4F81054D4F8C4
:109EB000180478B1384600F0BBF934E01EE0E868D9
:109EC0004079012804D12A6828463946126890470B
:109ED000E8680568002DF2D1384600F0A9F98DF840
:109EE00000B06846FDF7D4F9D4F8180408B9029810
:109EF00060609DF80000FDF7EFF914E0D4F810441D
:109F000005E02168204689688847E0680468002CDD
:109F1000F7D109480949401AC008022101EB004065
:109F200007A100F017F8FEF72FFB80F00100FEE616
:109F300018360020A4CB020084CB020034CB0200F0
:109F40004261636B656E647320666C7573686564EB
:109F50000000000000231A4601F0D6BB08B501231B
:109F600000926A4601F0D0FB08BD1CB5CDE9002384
:109F700002236A4601F0C8FB1CBD70B586B00DF126
:109F8000280C9CE870008DE87C0005236A4601F0EF
:109F9000BBFB06B070BD00002DE9F0470E468046C1
:109FA0001C46924608293ED894F80C900020207355
:109FB0001946104601F072F90025B54206D218F88C
:109FC00005201AA12046FFF727FC03E019A120462F
:109FD000FFF722FC6D1C082DEFD317A12046FFF7D9
:109FE0001BFC0025B54210D218F80570FCF7E4F907
:109FF0000068C05D10F03E0F01D03A4600E02E220E
:10A000000EA12046FFF708FC03E00DA12046FFF754
:10A0100003FC6D1C082DE5D301222146504601F0BA
:10A020001FF984F80C90BDE8F0870000202530323D
:10A0300078000000202020007C0000002563000044
:10A04000200000000B4810B5FF2181600021016055
:10A050004160C0F81814C0F8141480F820140648A1
:10A0600000F0E4F8002803D1044800F043F9002090
:10A0700010BD000018360020A4CB020078C20200F8
:10A0800002480349401AC00870470000A4CB0200F0
:10A0900034CB020013B56846FFF7D2F808B10020B0
:10A0A0001CBD0248009950F831001CBD34CB0200A1
:10A0B00070B509480125D0F8104480F8205407E015
:10A0C000E06845712168204649688847E06804686F
:10A0D000002CF5D170BD0000183600202DE9FF4797
:10A0E00081460C9D00200C462F7B2873984616460F
:10A0F0002946184601F0D2F8072E42D2DFE806F0D2
:10A1000004090F161F2A360049462846FFF784FB2C
:10A1100037E0494628462268FFF77EFB31E0D4E964
:10A12000002349462846FFF777FB2AE0A068009005
:10A13000D4E9002349462846FFF76EFB21E0D4E925
:10A140000201CDE90001D4E9002349462846FFF782
:10A1500063FB16E004F1080007C88DE80700D4E9A6
:10A16000002349462846FFF757FB0AE004F10800A0
:10A170000FC88DE80F00D4E9002349462846FFF7B1
:10A180004BFB00222946404601F06AF82F73BDE8D8
:10A19000FF872DE9F041058A80462D1F4819C01C14
:10A1A000B0FBF5F0C6B24046FFF7FDF8041E19D02B
:10A1B0000020207101206071E58000272546761E71
:10A1C000C4F800800BE04046FFF7EDF860B161791C
:10A1D000491C6171286005467F1CC0F80080B742A9
:10A1E000F1D32046BDE8F081204600F002F80020BF
:10A1F000F8E72DE9F041457901466B1E002201E0A8
:10A200000968521C9A42FBD30F680146002605E0FC
:10A2100038460C68FFF7E9F82146761CAE42F7D3C2
:10A22000BDE8F0810121001DFFF79BB8FFF7F5B8ED
:10A2300010B504460121001DFFF7AFF810F0FF0F25
:10A2400004D12046BDE81040FFF7D3BF10BD1CB5B8
:10A2500001920122009201AAFEF7B2FF1CBD1CB5BB
:10A2600001920022009201AAFEF7AAFF1CBD000085
:10A27000064910B500204870091D0860BFF35F8FC4
:10A280000349044800F064FA002010BD402B002070
:10A2900010C102007434002008B500208DF80000C1
:10A2A0006846FCF7F5FFF1EE100A20F09F00E1EEA2
:10A2B000100ABFF35F8F08494020C1F880029DF863
:10A2C0000000FDF709F800F0FDF908B141DF08BD15
:10A2D00020BF40BF20BF08BD04E000E001A29021E4
:10A2E000FBF798BF2E2E5C2E2E5C2E2E5C6D6169C6
:10A2F0006E2E63008268002191608268116182681D
:10A3000051618268D16082685160806801607047E5
:10A3100020B1034909680160002070470E20704792
:10A32000FCC202002DE9FE4307460E460846FFF731
:10A33000EFFF00287CD100240094019406208DF8C2
:10A3400000704FF00108ADF8040002948DF802800F
:10A3500069462020326869DF3649374A891AC908B8
:10A36000012202EB014530B100F036FA02462846E0
:10A370003249FFF7F3FD00948DF801808DF802401B
:10A38000019402948DF8034069464020326869DFE9
:10A3900030B100F021FA024628462949FFF7DEFDD8
:10A3A00000948DF80070F720ADF80200019402943B
:10A3B00069462320326869DF30B100F00DFA0246A9
:10A3C00028462049FFF7CAFD0094019402948DF8B5
:10A3D000008069460120326869DF30B100F0FCF985
:10A3E000024628461849FFF7B9FD4FF4B0600090C7
:10A3F000019402946946A120326869DF30B100F00F
:10A40000EBF9024628461149FFF7A8FD0094019494
:10A4100002948DF800406946A020326869DF30B1AF
:10A4200000F0DAF9024628460949FFF797FD0020B7
:10A43000BDE8FE8394CB020034CB02009CC902002D
:10A44000E4C9020030CA0200FCC8020048C9020088
:10A45000A8C802002DE9F0410546076860DF804684
:10A4600019491A482A68081AC608BA4219D9022096
:10A4700000EB064416A12046FFF76CFD20463A4645
:10A480001FA12B68FFF771FD4FF08050D0F80C0131
:10A490002968800200F10050421A204625A1FFF7EA
:10A4A0005DFDB8F100004FF001040AD000F094F90E
:10A4B000024604EB06402AA1FFF750FD4046BDE8E6
:10A4C000F0812F480470F9E794CB020034CB0200EE
:10A4D000496E73756666696369656E742052414D95
:10A4E00020616C6C6F636174656420666F722074A8
:10A4F000686520536F66744465766963652E000055
:10A500004368616E6765207468652052414D207311
:10A5100074617274206C6F636174696F6E2066720F
:10A520006F6D203078257820746F20307825782E54
:10A53000000000004D6178696D756D2052414D201D
:10A5400073697A6520666F72206170706C696361EF
:10A5500074696F6E20697320307825782E000000B2
:10A5600073645F626C655F656E61626C652829204B
:10A5700072657475726E65642025732E000000008C
:10A58000AB2B002030B51748ADF5017D00780028D1
:10A5900025D04FF4FA7400BFADF8004280A9684698
:10A5A00061DF50B105281AD00DF5017D0EA2BDE87E
:10A5B000304040F23911FBF72DBE6D461A497DA897
:10A5C00000F0C6F807E000BFD0E900212846904718
:10A5D0007DA800F0D4F87F980028DDD0F4E70DF5D1
:10A5E000017D30BDAB2B00202E2E5C2E2E5C2E2E3E
:10A5F0005C2E2E5C2E2E5C2E2E5C636F6D706F6E4B
:10A60000656E74735C736F66746465766963655CAC
:10A61000636F6D6D6F6E5C6E72665F7364685F62B0
:10A620006C652E630000000000C302007CB5194C6D
:10A63000207808B108207CBD0120A070002000F027
:10A640000BFF112819D0002000F01EFF1248002631
:10A65000006801908DF800606846FCF719FE0F490C
:10A6600001A810DF05000AD0002020709DF800002E
:10A67000FCF732FE2DB128467CBD00207CBD0120B8
:10A68000F3E7A670667000F0F3FF012000F0FCFE17
:10A69000F3E70000A82B002094C20200E96D02003D
:10A6A0000EB50749684600F053F805E0D0E9001000
:10A6B0008847684600F063F802980028F6D10EBD7E
:10A6C000B0C202000148007870470000A82B0020AB
:10A6D0001FB568464BDF40B1052816D004B00BA269
:10A6E000BDE810406B21FBF795BD184901A800F0AB
:10A6F0002FF806E0D0E900210098904701A800F06B
:10A700003EF803980028E4D0F4E71FBD2E2E5C2EFF
:10A710002E5C2E2E5C2E2E5C2E2E5C2E2E5C636FFD
:10A720006D706F6E656E74735C736F66746465765E
:10A730006963655C636F6D6D6F6E5C6E72665F738F
:10A7400064685F736F632E63000000001CC3020027
:10A75000016009684160AFF3008010B5D0E90021C5
:10A760005368994201D1002104E0D1E90034A342A9
:10A7700002D01946816010BD08314160F0E7816860
:10A7800000290BD0026892680A44826041684B68D5
:10A790009A4203D108314160FFF7DFBF70470000E4
:10A7A0000C4A10B502F594730EE0991AC91001EB2A
:10A7B000D171491002EBC1010C68844201D90B46EA
:10A7C00002E005D201F108029A42EED3002010BD4A
:10A7D000486810BD30C1020000B5FFF7E1FF002856
:10A7E00000D1014800BD00001CC1020008B50022D4
:10A7F00042504058009008BD4058002800D0012029
:10A80000704708B5002242504058009008BDD0F86B
:10A810000403084000D0012070474058002800D0B1
:10A820000120704708B5002242504058009008BDF2
:10A8300009480068012110F0010F08D14FF0E02015
:10A84000C02280F80024C0F88012C0F8001103492B
:10A85000012008607047000000E100E0180500409A
:10A860000649024600200B790BB1852070470A602B
:10A8700001220A7100224A7170470000002B00205B
:10A8800004490120086004480168C1F3004100291F
:10A89000FAD170470C00004018040040002802D094
:10A8A0000149800108477047C1C002000121B1EB96
:10A8B000507F01D1012070470020704738B50D4608
:10A8C00000F038FD040014D000208DF80000684628
:10A8D000FCF7DEFC207928B19DF80000FCF7FCFCB9
:10A8E000112038BD0120256020719DF80000FCF783
:10A8F000F3FC002038BD2DE9F04106460D464FF42B
:10A90000803400681746AC404BB14FF4A07101EBA6
:10A910008501FFF76BFF3068C0F8044301E0C0F821
:10A920000843306800EB8500C0F84075BDE8F08151
:10A93000016801220A600079034A00EB400002EB43
:10A94000800002210172704710330020F0B40468C7
:10A95000049E40F20115D4F800728D40AF43C4F854
:10A9600000720468D4F800521D43C4F80052334604
:10A97000F0BCFFF7C0BF00002DE9F04104460E46D1
:10A9800000792C4900EB400001EB8007387A10B1C8
:10A990000820BDE8F0813A60706800254FF4A07887
:10A9A000786006E008EB85012068FFF71FFF6D1C4B
:10A9B000EDB26079A842F5D82068F17840F307300D
:10A9C00000284FEA411106DA00F00F0000F1E02004
:10A9D00080F8141D03E000F1E02080F800142068E6
:10A9E000012240F3073000F01F0302FA03F140098F
:10A9F000800000F1E020C0F88012C0F8001120684B
:10AA00007178D0F8043561F30103C0F8043520688B
:10AA1000B178D0F8083561F30103C0F80835206833
:10AA20003178D0F8103561F30303C0F810353A726D
:10AA30000020AEE7103300200149024801F078B849
:10AA4000C0320020002000402DE9F0410546007989
:10AA500016460F4600EB40012D4A01EBC00102EB08
:10AA6000810494F82A1011B10820BDE8F081294929
:10AA700051F820102868FFF721FF08B11120F4E7F2
:10AA800039462846FCF742FC666038692060300091
:10AA90004FF001062FD03F7F4FF48E712868FFF7EB
:10AAA000B0FE4FF4A2712868FFF7ABFE28681A4980
:10AAB000C0F8041328684FEA471140F30730002814
:10AAC00006DA00F00F0000F1E02080F8141D03E02A
:10AAD00000F1E02080F80014286840F3073000F00F
:10AAE0001F0206FA02F14009800000F1E020C0F8E0
:10AAF0008012C0F8001128680421C0F80015002059
:10AB0000A061E06184F8290044F8140FA675ACE751
:10AB1000C0320020B0C00200800002002DE9F05FCA
:10AB2000054600794FF4017600EB400303EBC000CB
:10AB3000344B03EB80040020636813B12B68C3F827
:10AB40000863A3694FF000096BB1E06938B1606830
:10AB500010B12868C0F804631120BDE8F09FE261DD
:10AB60000120216105E0C4F82490A261E160C4F8ED
:10AB70001C9094F82910014302D1284600F034FCBF
:10AB800060680028286803D0C0F804630020E4E768
:10AB90004FF4A2763146FFF734FEB2464FF4927B73
:10ABA00059462868FFF728FE06464FF48471286846
:10ABB000FFF722FE804651462868FFF71DFE074634
:10ABC00048EA07003043EBD056EA070007D1214698
:10ABD000286800F0D9FBA169606A8142E0D8C4F816
:10ABE00018900EB10320B8E70FB10F20B5E794F825
:10ABF000291001200029296801D00860C6E74860B3
:10AC0000C4E70000C03200202DE9F0470546007976
:10AC10000B4600EB400101EBC000234901EB80042F
:10AC2000284600F043F810B11120BDE8F0874FF03E
:10AC30000008C4F82080A360626184F828804FF483
:10AC40008E76474631462868FFF7DBFD28684FF0CF
:10AC50000109C0F808902146286800F0A1FE60684C
:10AC600000BBD5F800A00EE094F8280008B10F272B
:10AC700016E031465046FFF7BFFD0028F4D02146CC
:10AC8000504600F08DFE216A60698142F1D3314661
:10AC90002868FFF7B1FD0028F9D02868C0F80C90AB
:10ACA000C4F814803846C0E7C0320020007900EBB9
:10ACB000400101EBC000044901EB8000406900281D
:10ACC00000D0012070470000C03200200149024836
:10ACD00000F0DABFEC320020002000402DE9F04106
:10ACE0000546164600790F46154A00EBC00102EBF7
:10ACF000810494F8201011B10820BDE8F0811149B9
:10AD000051F820102868FFF7D9FD08B11120F4E7A9
:10AD100039462846FCF73EFB6660386920601EB164
:10AD2000397F2846FDF7B2FF28680821C0F80015D2
:10AD30000020A061E0610121606184F82010DCE75F
:10AD4000EC320020B4C002002DE9F05F0446007927
:10AD50000E4600EBC001DFF8F0A017460AEB8105B4
:10AD60003046FFF7A3FDB0B168684FF000084FF41C
:10AD7000047910B12168C1F80893A8694FF0000B5D
:10AD800080B1E86948B1686810B12068C0F80493E0
:10AD90001120BDE8F09F1020FBE7EF614FF00108A4
:10ADA0002E6102E0EE60C5E9067B00254FF4887154
:10ADB0002068FFF737FD4FF4A2712068FFF732FDDE
:10ADC0002068C0F83465C0F838752068B8F1000F05
:10ADD00012D0D0F8001241F02001C0F80012207902
:10ADE000D04600EBC0010AEB8100406838B1206812
:10ADF000C0F804932846CCE701210160EFE74FF447
:10AE0000887A4FF4A27951462068FFF706FD07467D
:10AE100049462068FFF701FD06464FF4927120680D
:10AE2000FFF7FBFC014647EA06000843EBD0227916
:10AE300002EBC20308EB8302C2F818B001B103258C
:10AE4000002ED7D00F25D5E7EC3200202DE9F047B2
:10AE500004460E460079204900EBC00001EB800556
:10AE600017463046FFF722FD30B1204600F036F895
:10AE700020B11120BDE8F0871020FBE76F61AE60C4
:10AE80004FF49076002731462068FFF7CBFC4FF453
:10AE9000AC7841462068FFF7C5FC2068AA6869695C
:10AEA000C0F84425C0F84815206801218160686811
:10AEB00078B9B14649462068FFF7AFFC06464146DF
:10AEC0002068FFF7AAFC0643F4D000B10F2700204A
:10AED00068613846CEE70000EC3200200079054971
:10AEE00000EBC00001EB80004069002800D0012089
:10AEF00070470000EC32002070B50546007800284D
:10AF000029D1002618E02869805DFCF797F9040034
:10AF100011D0112CF7D0104810492246401AC00811
:10AF2000012101EB00400EA1FFF718F817A2AE2196
:10AF30002046FBF76FF9761CA88AB042E3D8A98AAD
:10AF40002869084410F8010C0D2804D10A20FCF7E8
:10AF500075F91128FAD070BD84CB020034CB020001
:10AF60004661696C656420726563656976696E67C0
:10AF7000204E5553206D6573736167652E204572B1
:10AF8000726F7220307825782E2000002E2E5C2ED5
:10AF90002E5C2E2E5C6D61696E2E630010B568B15B
:10AFA00003280FD10220FDF7A3F900280AD0BDE83D
:10AFB000104005A240F22D11FBF72CB9BDE810405E
:10AFC00000F024BB10BD00002E2E5C2E2E5C2E2E19
:10AFD0005C6D61696E2E63000078002809D1054818
:10AFE0003B21408876DF002803D003A2E621FBF74F
:10AFF00011B97047A02A00202E2E5C2E2E5C2E2E1A
:10B000005C6D61696E2E6300F0B58BB00026019611
:10B010000D4604468988C06901AAFCF7FFF90AA811
:10B02000CDE908600227ADF82070ADF82260218AD2
:10B03000A88808AAADDF002819D1206A002816D0F8
:10B040000998FDF759F8002811D0019E0EB1012092
:10B050003070182102A8FBF7CCF98DF80870039422
:10B06000A888ADF810000596216A02A888470BB0A1
:10B07000F0BD000070B58D88027900EBC504227325
:10B08000C97BA41D012902D0022904D101E0008856
:10B0900000E04088208021886088814211D92846BC
:10B0A000A5DF0126B0B1112816D0FFF795FB0246A7
:10B0B0000B480C49401AC00806EB00400AA1FEF7F5
:10B0C0004DFFA179E079814208D92846BDE870405A
:10B0D000FDF740BC6671F4E72671F2E770BD000031
:10B0E00034CB020034CB020073645F626C655F672F
:10B0F000617474635F65786368616E67655F6D74C2
:10B10000755F726571756573742829207265747531
:10B11000726E65642025732E000000007CB5064623
:10B120008D88C88806EBC504A41D172800D21720F7
:10B130002188814200D80846608000202071218843
:10B140002846B5DF60B1FFF747FB02460F481049BC
:10B15000401AC008012101EB00400EA1FEF7FEFEDF
:10B160006079002810D1306900280DD01549D1E947
:10B170000201CDE90001ADF802506088ADF804008D
:10B1800032696946304690477CBD000034CB0200EE
:10B1900034CB020073645F626C655F6761747473C3
:10B1A0005F65786368616E67655F6D74755F726512
:10B1B000706C7928292072657475726E656420251B
:10B1C000732E000084C00200F0B587B00C4605461F
:10B1D0008E1D8988C06906AAFCF720F918216846E7
:10B1E000FBF707F90195A088069AADF808000392CD
:10B1F00031882B89002704F11200994202D173890A
:10B20000022B0DD0AA8991421ED1296A00291BD098
:10B210008DF8007004907089ADF81400296A11E06F
:10B22000002A11D0FCF768FF20B1069901200870B0
:10B23000022002E00698077003208DF80000296ABA
:10B24000002901D06846884707B0F0BD0068012892
:10B2500003D0022801D00020704701207047000071
:10B2600010B50C46017A052908D0407A38B1084853
:10B2700008A102682046FEF7CFFA00E01AB106A145
:10B280002046FEF7C9FA2046BDE81040FEF7D1BAC5
:10B29000842B0020257300000D0A000038B5C388F8
:10B2A0000D46044633B114A0009015A216A12846FD
:10B2B000FEF7B2FA217A05291CD0607A48B1A0883D
:10B2C000FEF708FD164951F8202016A12846FEF782
:10B2D000A3FAA0880021FEF7DDFE03461049207A7C
:10B2E000143951F8202001B02846BDE830400EA1A5
:10B2F000FEF792BA38BD00001B5B306D0000000005
:10B300001B5B313B33316D0025734C6F67732064D9
:10B31000726F70706564202825642925730D0A00FA
:10B32000842B0020257300003C25733E2025733AB2
:10B33000200000000349884201D1034870470020E3
:10B340007047000000200040082B002070B5012647
:10B3500070044FF0E0210025C1F88001084C401036
:10B36000C4F84803C4F8080366602F20FFF796FA74
:10B37000A660044C2F20A560FFF790FAA57070BD61
:10B3800000100140102B002070B5054688690C465E
:10B3900000284FF4847128460AD0FFF732FAD5F816
:10B3A0001805626AE1688854606A401C606270BD7A
:10B3B000FFF727FAD5F8180570BD1FB501238DF8E2
:10B3C0000030CDE90121D0E90012684690471FBD49
:10B3D0001FB501238DF800308DF808100192D0E9D7
:10B3E0000012684690471FBD10B5044600684FF430
:10B3F0009271FFF706FA4FF484712068FFF701FAA3
:10B4000020680121016010BD38B50021012548B137
:10B4100001280CD0032809D1FFF70AFABDE838400B
:10B42000FEF78EB94FF0E020C0F8805138BD8DF89E
:10B4300000106846FBF72CFF064C207808B9FEF791
:10B4400063F9E068401CE060A5709DF80000FBF720
:10B4500043FF38BD503200203EB5044609496846D6
:10B46000FFF776F908E000BFD0E9002120469047B9
:10B4700030B16846FFF783F902980028F4D13EBD49
:10B4800011203EBD98C202003EB5044608496846F8
:10B49000FFF75EF907E000BFD0E9002120469047A2
:10B4A0006846FFF76CF902980028F5D13EBD000010
:10B4B000A4C2020002498969002900D008477047E8
:10B4C000BC3100202DE9F0411400884618D0002539
:10B4D0000E4F032608EB050122460020FBF756F924
:10B4E0000544241A40B93878002809D008494FF497
:10B4F0007A408847761E05D001203870002CE9D1AB
:10B50000BDE8F08100203870FAE700004C2B0020E5
:10B5100071C202002DE9F0410746806A1446884650
:10B52000C8B3002531E000BFB96A05EB450001EB67
:10B530008006B088801CFE2802D90C20BDE8F0816E
:10B540002288401C08F8020020881622401C80B285
:10B55000208008F800202088401C80B2208000EB6A
:10B560000801308800F00AFC2188084480B220805D
:10B57000B28842B1B16871B14044FAF721FF208826
:10B58000B188084420806D1CEDB297F82C00A842C9
:10B59000CAD80020D2E7FFE70720CFE70A780628BD
:10B5A00022F0FF020A7010D2DFE800F0030507095D
:10B5B0000B0D002008E0112006E0212004E03120DE
:10B5C00002E0122000E02220087070471CB5122013
:10B5D000FEF770FA0F20FEF76DFA002306200093A5
:10B5E0001A4619460193FEF71DFA0820FEF762FA83
:10B5F000FAF73CFF1020FBF7B7FA1020FBF7B4FA7C
:10B60000BDE81C400020FBF7AFBA000010B50020D9
:10B61000FCF76EFE20B10CA240F21311FAF7FAFD0E
:10B62000FCF7ECFD20B108A240F21711FAF7F2FD89
:10B6300033DF002806D0BDE8104003A240F21B1102
:10B64000FAF7E8BD10BD00002E2E5C2E2E5C2E2ECB
:10B650005C6D61696E2E6300002805D103490120ED
:10B6600048700020FDF76AB8704700005032002093
:10B6700010B51620FBF744FBA0B1124890F8000467
:10B680004009082811D20121814011F0EC0F0CD0A3
:10B690000D4882684FF480017AB1016841F480015D
:10B6A000016010BD42F2010001E042F20200BDE87B
:10B6B000104006A2A121FAF7ADBD4FF0E020C0F87E
:10B6C000001110BD16E000E0683400202E2E5C2E24
:10B6D0002E5C2E2E5C2E2E5C2E2E5C2E2E5C636F2E
:10B6E0006D706F6E656E74735C736F66746465768F
:10B6F0006963655C636F6D6D6F6E5C6E72665F73C0
:10B7000064682E63000000002DE9F84F204D92463A
:10B71000894606469846012269461846AF68FCF7F6
:10B72000DBFE58B3009800210446801C09E000BFEE
:10B7300000EA07035AF8212005EB8303401C491C4B
:10B74000DA604145F4D34FEA164AFDF763F94AEA55
:10B750000041601C384005EB80003C4005EB840252
:10B76000C160D06866F3C50068F3891069F39F2053
:10B7700020F00300401C20F00400D06095F8200465
:10B7800002E000BFFEF7CCFA0028FBD1BDE8F88F3D
:10B790001836002008B5B0F5A47F12D15820FBF769
:10B7A000E3F91420FAF786FE69460220FAF7ACFFA7
:10B7B00004489DF801209DF8001043880C30FCF7E8
:10B7C0007DFB08BDA02A00202DE9F84F1D4C002567
:10B7D0006846D4E901A6FDF727F9002738B300230E
:10B7E000009A61681CE0D1F800C00846944503D96E
:10B7F000ACEB02020A6015E0A2EB0C0263440760A6
:10B80000D0F80CC0C1698146BCF1000F08D006EB2E
:10B81000030828F07F48C0E9018CC9F81C50054690
:10B820000029E0D128466160FDF7D0FA03E0284600
:10B83000FDF7CCFA10B15046FCF7A2FFE770BDE867
:10B84000F88F0000102B00200D4B10B5596831B156
:10B8500002680C68A24204D8A21A0A60C16158604A
:10B8600010BD0B4603E00B46C969121B21B10C68E1
:10B870009442F8D3A41A0C600260C161D86110BD73
:10B88000102B00202DE9F041144E77683D462C46E0
:10B8900003E0844204D02546E469002CF9D11BE082
:10B8A000D4B1A5420BD1F869706040B90C490120B0
:10B8B00088600021B160F0702F20FEF7EFFF216853
:10B8C000E069E86110B10268114401607068874264
:10B8D00002D00120BDE8F0810020FBE7102B002002
:10B8E000001001407CB5064600240D468DF800404E
:10B8F0006846FBF7CDFC01A800F0F2FA70B10570C4
:10B90000094946609DF8040048709DF80000FBF767
:10B91000E3FC1420FAF79EFE20467CBD04249DF82B
:10B920000000FBF7D9FCF7E73C3300202DE9F0419C
:10B93000194D6C68002C2CD0184800270068A968A5
:10B94000B846401A20F07F462068B0420CD8214605
:10B95000361A0744E469087C20B181F810808869B0
:10B9600049698847002CEFD129786878814206D14F
:10B97000401CC0B26870022801D185F801800648D9
:10B9800069780C3040F82170BDE8F0411420FAF7D6
:10B9900061BEBDE8F0810000102B002004150140BD
:10B9A00070B50C4605464FF48E71FEF72AFF216AEA
:10B9B000A068415C206A401C2062C5F81C1570BD5F
:10B9C0001FB500228DF8002002918168019142612B
:10B9D000D0E90012684690471FBD000038B50178D5
:10B9E00049B101292ED14068BDE8384016A240F285
:10B9F0000B21FAF70FBC194C174821780844FBF7C4
:10BA000091FB2078401CC0B22070A188884219D3D5
:10BA1000012815D92078ADF80000104863886A46DF
:10BA20000D490C30FCF76EFA082809D01328F1D024
:10BA3000052805D020B104A240F2FD11FAF7EAFB77
:10BA40000020207038BD00002E2E5C2E2E5C2E2E85
:10BA50005C6D61696E2E6300B02B0020A02A00206F
:10BA60007CB50178244D81B301290BD002292BD15B
:10BA70008DF80010C068691C01900122C81DFDF7F7
:10BA8000ABFE2EE0406801781C48FBF7ACFA1B4C7B
:10BA9000012618B18DF80060019006E0A068E16809
:10BAA000814205D000208DF800006968684688470B
:10BAB000A068E168081AA188884207D80E490122C7
:10BAC000491CC81DFDF788FE7CBD01E0AE70FBE798
:10BAD0000A4809491030FBF76BFA30B103208DF8A2
